:030000000209638F
:0C096300787FE4F6D8FD75811E0209AA19
:100A7400454E5445522050415353574F524400540D
:100A84004F4F2053484F52542100233A5245534567
:100A940054200057454C434F4D452048495241008E
:100AA400444F4F5220554E4C4F434B494E47004103
:100AB40055544F204C4F434B494E47004143434507
:100AC40053532044454E49454421005359535445FA
:100AD4004D204C4F434B45442E2E2E0057524F4E23
:0B0AE400472050415353574F5244002D
:0E0B7900060A3132333435000109000108004C
:080B1D00C2B6D2B77F027E00D0
:100B2500E4FDFCC3ED9FEC9E5015E4FBFA0BBB0006
:0F0B3500010ABA04F8BBFBF50DBD00010C80E40A
:010B4400228E
:0A0B88008F90C2B5120B1DC2B722F8
:0A0B92008F90D2B5120B1DC2B722DE
:0B0AEF007FC0120B887BFF7A0A798E13
:100AFA008B1C8A1D891EAB1CAA1DA91E120B60FF26
:100B0A006010120B927401251EF51EE4351DF51DA9
:030B1A0080E42252
:100B45007F38120B887F0C120B887F06120B887F6B
:0B0B550001120B887F057E00020B25BB
:1009EF00C2A0D2A1D2A2D2A320B0047931806320B9
:1009FF00B1047932805C20B20479338055D2A0C221
:100A0F00A1D2A2D2A320B0047934804620B10479B8
:100A1F0035803F20B20479368038D2A0D2A1C2A24D
:100A2F00D2A320B0047937802920B10479388022ED
:100A3F0020B2047939801BD2A0D2A1D2A2C2A320A6
:100A4F00B004792A800C20B1047930800520B2904F
:100A5F00792330B0FD30B1FA30B2F77F147E001237
:040A6F000B25AF01A3
:010A73002260
:10080000120B45C280C281C2B3C2B47F01120B88F1
:100810007BFF7A0A7974120AFA7FC0120B88E4F51A
:10082000091209EFEF6423601AE509C39405500E1D
:1008300074102509F8A6077F2A120B920509E5090D
:10084000B405DEE50960C0C3940550407F01120B7A
:10085000887BFF7A0A7983120AFA120AEFD281E4BE
:10086000F51AF51BC2A3D2A0D2A1D2A230B2187F32
:10087000017E00120B25051BE51B7002051AC394AF
:10088000B8E51A940B40DDC2810208077F01E4FE3F
:10089000740A2EF8E6FD74102EF8E66D6002E4FF8F
:1008A0000EBE05ECEF64017049F508D2807F01129D
:1008B0000B887BFF7A0A7997120AFA7FC0120B889D
:1008C0007BFF7A0A79A4120AFAD2B3C2B47FE87E17
:1008D00003120B257F01120B887BFF7A0A79B31272
:1008E0000AFAC2B3D2B47FE87E03120B25C280029B
:1008F00008070508D281E508C3940340287F011248
:100900000B887BFF7A0A79C0120AFA7FC0120B8823
:100910007BFF7A0A79CF120AFA7F107E27120B2505
:10092000E4F50880397F01120B887BFF7A0A79E0B1
:10093000120AFA120AEFE4F51AF51BC2A3D2A0D2EA
:10094000A1D2A230B2187F017E00120B25051BE553
:100950001B7002051AC394B8E51A940B40DDC281DE
:0309600002080783
:10096F00020800E493A3F8E493A34003F68001F296
:10097F0008DFF48029E493A3F85407240CC8C33389
:10098F00C4540F4420C8834004F456800146F6DF58
:10099F00E4800B0102040810204080900B79E47E64
:1009AF00019360BCA3FF543F30E509541FFEE4934D
:1009BF00A360010ECF54C025E060A840B8E493A314
:1009CF00FAE493A3F8E493A3C8C582C8CAC583CA3F
:1009DF00F0A3C8C582C8CAC583CADFE9DEE780BEF7
:010B8700006D
:100B6000BB010689828A83E0225002E722BBFE0293
:090B7000E32289828A83E49322C6
:00000001FF
